{
  "contractName": "Election",
  "abi": [
    {
      "inputs": [],
      "stateMutability": "nonpayable",
      "type": "constructor"
    },
    {
      "anonymous": false,
      "inputs": [
        {
          "indexed": true,
          "internalType": "uint256",
          "name": "_candidateId",
          "type": "uint256"
        }
      ],
      "name": "Voted",
      "type": "event"
    },
    {
      "inputs": [],
      "name": "candidatesCount",
      "outputs": [
        {
          "internalType": "uint256",
          "name": "",
          "type": "uint256"
        }
      ],
      "stateMutability": "view",
      "type": "function",
      "constant": true
    },
    {
      "inputs": [],
      "name": "electionState",
      "outputs": [
        {
          "internalType": "enum Election.State",
          "name": "",
          "type": "uint8"
        }
      ],
      "stateMutability": "view",
      "type": "function",
      "constant": true
    },
    {
      "inputs": [],
      "name": "owner",
      "outputs": [
        {
          "internalType": "address",
          "name": "",
          "type": "address"
        }
      ],
      "stateMutability": "view",
      "type": "function",
      "constant": true
    },
    {
      "inputs": [],
      "name": "votersCount",
      "outputs": [
        {
          "internalType": "uint256",
          "name": "",
          "type": "uint256"
        }
      ],
      "stateMutability": "view",
      "type": "function",
      "constant": true
    },
    {
      "inputs": [],
      "name": "startElection",
      "outputs": [],
      "stateMutability": "nonpayable",
      "type": "function"
    },
    {
      "inputs": [],
      "name": "endElection",
      "outputs": [],
      "stateMutability": "nonpayable",
      "type": "function"
    },
    {
      "inputs": [
        {
          "internalType": "string",
          "name": "_name",
          "type": "string"
        }
      ],
      "name": "addCandidate",
      "outputs": [],
      "stateMutability": "nonpayable",
      "type": "function"
    },
    {
      "inputs": [
        {
          "internalType": "address",
          "name": "_voter",
          "type": "address"
        }
      ],
      "name": "addVoter",
      "outputs": [],
      "stateMutability": "nonpayable",
      "type": "function"
    },
    {
      "inputs": [
        {
          "internalType": "address",
          "name": "_current",
          "type": "address"
        }
      ],
      "name": "getRole",
      "outputs": [
        {
          "internalType": "uint256",
          "name": "",
          "type": "uint256"
        }
      ],
      "stateMutability": "view",
      "type": "function",
      "constant": true
    },
    {
      "inputs": [
        {
          "internalType": "uint256",
          "name": "_candidateId",
          "type": "uint256"
        }
      ],
      "name": "vote",
      "outputs": [],
      "stateMutability": "nonpayable",
      "type": "function"
    },
    {
      "inputs": [
        {
          "internalType": "uint256",
          "name": "_candidateId",
          "type": "uint256"
        }
      ],
      "name": "getCandidateDetails",
      "outputs": [
        {
          "internalType": "string",
          "name": "",
          "type": "string"
        },
        {
          "internalType": "uint256",
          "name": "",
          "type": "uint256"
        }
      ],
      "stateMutability": "view",
      "type": "function",
      "constant": true
    }
  ],
  "bytecode": "0x60806040526000600455600060055534801561001a57600080fd5b50336000806101000a81548173ffffffffffffffffffffffffffffffffffffffff021916908373ffffffffffffffffffffffffffffffffffffffff16021790555060008060146101000a81548160ff021916908360028111156100805761007f61008a565b5b02179055506100b9565b7f4e487b7100000000000000000000000000000000000000000000000000000000600052602160045260246000fd5b611737806100c86000396000f3fe608060405234801561001057600080fd5b50600436106100a95760003560e01c8063462e91ec11610071578063462e91ec1461016757806359f784681461018357806362d73eb81461018d5780638da5cb5b1461019757806398c07938146101b5578063f4ab9adf146101d3576100a9565b80630121b93f146100ae5780632280043d146100ca57806327f9fd50146100e85780632d35a8a2146101195780634427673314610137575b600080fd5b6100c860048036038101906100c39190610bde565b6101ef565b005b6100d2610483565b6040516100df9190610c82565b60405180910390f35b61010260048036038101906100fd9190610bde565b610496565b604051610110929190610d3c565b60405180910390f35b6101216105ac565b60405161012e9190610d6c565b60405180910390f35b610151600480360381019061014c9190610de5565b6105b2565b60405161015e9190610d6c565b60405180910390f35b610181600480360381019061017c9190610f47565b610675565b005b61018b6107f4565b005b6101956108b9565b005b61019f61097e565b6040516101ac9190610f9f565b60405180910390f35b6101bd6109a2565b6040516101ca9190610d6c565b60405180910390f35b6101ed60048036038101906101e89190610de5565b6109a8565b005b6001600281111561020357610202610c0b565b5b600060149054906101000a900460ff16600281111561022557610224610c0b565b5b14610265576040517f08c379a000000000000000000000000000000000000000000000000000000000815260040161025c90611006565b60405180910390fd5b600360003373ffffffffffffffffffffffffffffffffffffffff1673ffffffffffffffffffffffffffffffffffffffff16815260200190815260200160002060009054906101000a900460ff166102f1576040517f08c379a00000000000000000000000000000000000000000000000000000000081526004016102e890611072565b60405180910390fd5b600260003373ffffffffffffffffffffffffffffffffffffffff1673ffffffffffffffffffffffffffffffffffffffff16815260200190815260200160002060009054906101000a900460ff161561037e576040517f08c379a0000000000000000000000000000000000000000000000000000000008152600401610375906110de565b60405180910390fd5b60008110158015610390575060045481105b6103cf576040517f08c379a00000000000000000000000000000000000000000000000000000000081526004016103c69061114a565b60405180910390fd5b6001600082815260200190815260200160002060020160008154809291906103f690611199565b91905055506001600260003373ffffffffffffffffffffffffffffffffffffffff1673ffffffffffffffffffffffffffffffffffffffff16815260200190815260200160002060006101000a81548160ff021916908315150217905550807f7f511e347bf51eed3be100b3194247d5207f05f3b33de7d31e3e8ee73199a04960405160405180910390a250565b600060149054906101000a900460ff1681565b606060008083101580156104ab575060045483105b6104ea576040517f08c379a00000000000000000000000000000000000000000000000000000000081526004016104e19061114a565b60405180910390fd5b60016000848152602001908152602001600020600101600160008581526020019081526020016000206002015481805461052390611210565b80601f016020809104026020016040519081016040528092919081815260200182805461054f90611210565b801561059c5780601f106105715761010080835404028352916020019161059c565b820191906000526020600020905b81548152906001019060200180831161057f57829003601f168201915b5050505050915091509150915091565b60045481565b60008173ffffffffffffffffffffffffffffffffffffffff1660008054906101000a900473ffffffffffffffffffffffffffffffffffffffff1673ffffffffffffffffffffffffffffffffffffffff16036106105760019050610670565b600360008373ffffffffffffffffffffffffffffffffffffffff1673ffffffffffffffffffffffffffffffffffffffff16815260200190815260200160002060009054906101000a900460ff161561066b5760029050610670565b600390505b919050565b3373ffffffffffffffffffffffffffffffffffffffff1660008054906101000a900473ffffffffffffffffffffffffffffffffffffffff1673ffffffffffffffffffffffffffffffffffffffff1614610703576040517f08c379a00000000000000000000000000000000000000000000000000000000081526004016106fa9061128d565b60405180910390fd5b6000600281111561071757610716610c0b565b5b600060149054906101000a900460ff16600281111561073957610738610c0b565b5b14610779576040517f08c379a0000000000000000000000000000000000000000000000000000000008152600401610770906112f9565b60405180910390fd5b6040518060600160405280600454815260200182815260200160008152506001600060045481526020019081526020016000206000820151816000015560208201518160010190816107cb91906114c5565b5060408201518160020155905050600460008154809291906107ec90611199565b919050555050565b60008054906101000a900473ffffffffffffffffffffffffffffffffffffffff1673ffffffffffffffffffffffffffffffffffffffff163373ffffffffffffffffffffffffffffffffffffffff161461084c57600080fd5b600160028111156108605761085f610c0b565b5b600060149054906101000a900460ff16600281111561088257610881610c0b565b5b1461088c57600080fd5b6002600060146101000a81548160ff021916908360028111156108b2576108b1610c0b565b5b0217905550565b60008054906101000a900473ffffffffffffffffffffffffffffffffffffffff1673ffffffffffffffffffffffffffffffffffffffff163373ffffffffffffffffffffffffffffffffffffffff161461091157600080fd5b6000600281111561092557610924610c0b565b5b600060149054906101000a900460ff16600281111561094757610946610c0b565b5b1461095157600080fd5b6001600060146101000a81548160ff0219169083600281111561097757610976610c0b565b5b0217905550565b60008054906101000a900473ffffffffffffffffffffffffffffffffffffffff1681565b60055481565b3373ffffffffffffffffffffffffffffffffffffffff1660008054906101000a900473ffffffffffffffffffffffffffffffffffffffff1673ffffffffffffffffffffffffffffffffffffffff1614610a36576040517f08c379a0000000000000000000000000000000000000000000000000000000008152600401610a2d906115e3565b60405180910390fd5b600360008273ffffffffffffffffffffffffffffffffffffffff1673ffffffffffffffffffffffffffffffffffffffff16815260200190815260200160002060009054906101000a900460ff1615610ac3576040517f08c379a0000000000000000000000000000000000000000000000000000000008152600401610aba9061164f565b60405180910390fd5b60006002811115610ad757610ad6610c0b565b5b600060149054906101000a900460ff166002811115610af957610af8610c0b565b5b14610b39576040517f08c379a0000000000000000000000000000000000000000000000000000000008152600401610b30906116e1565b60405180910390fd5b6001600360008373ffffffffffffffffffffffffffffffffffffffff1673ffffffffffffffffffffffffffffffffffffffff16815260200190815260200160002060006101000a81548160ff02191690831515021790555050565b6000604051905090565b600080fd5b600080fd5b6000819050919050565b610bbb81610ba8565b8114610bc657600080fd5b50565b600081359050610bd881610bb2565b92915050565b600060208284031215610bf457610bf3610b9e565b5b6000610c0284828501610bc9565b91505092915050565b7f4e487b7100000000000000000000000000000000000000000000000000000000600052602160045260246000fd5b60038110610c4b57610c4a610c0b565b5b50565b6000819050610c5c82610c3a565b919050565b6000610c6c82610c4e565b9050919050565b610c7c81610c61565b82525050565b6000602082019050610c976000830184610c73565b92915050565b600081519050919050565b600082825260208201905092915050565b60005b83811015610cd7578082015181840152602081019050610cbc565b60008484015250505050565b6000601f19601f8301169050919050565b6000610cff82610c9d565b610d098185610ca8565b9350610d19818560208601610cb9565b610d2281610ce3565b840191505092915050565b610d3681610ba8565b82525050565b60006040820190508181036000830152610d568185610cf4565b9050610d656020830184610d2d565b9392505050565b6000602082019050610d816000830184610d2d565b92915050565b600073ffffffffffffffffffffffffffffffffffffffff82169050919050565b6000610db282610d87565b9050919050565b610dc281610da7565b8114610dcd57600080fd5b50565b600081359050610ddf81610db9565b92915050565b600060208284031215610dfb57610dfa610b9e565b5b6000610e0984828501610dd0565b91505092915050565b600080fd5b600080fd5b7f4e487b7100000000000000000000000000000000000000000000000000000000600052604160045260246000fd5b610e5482610ce3565b810181811067ffffffffffffffff82111715610e7357610e72610e1c565b5b80604052505050565b6000610e86610b94565b9050610e928282610e4b565b919050565b600067ffffffffffffffff821115610eb257610eb1610e1c565b5b610ebb82610ce3565b9050602081019050919050565b82818337600083830152505050565b6000610eea610ee584610e97565b610e7c565b905082815260208101848484011115610f0657610f05610e17565b5b610f11848285610ec8565b509392505050565b600082601f830112610f2e57610f2d610e12565b5b8135610f3e848260208601610ed7565b91505092915050565b600060208284031215610f5d57610f5c610b9e565b5b600082013567ffffffffffffffff811115610f7b57610f7a610ba3565b5b610f8784828501610f19565b91505092915050565b610f9981610da7565b82525050565b6000602082019050610fb46000830184610f90565b92915050565b7f456c656374696f6e206973206e6f7420696e2070726f67726573730000000000600082015250565b6000610ff0601b83610ca8565b9150610ffb82610fba565b602082019050919050565b6000602082019050818103600083015261101f81610fe3565b9050919050565b7f4e6f6e20617574686f726973656420757365722063616e6e6f7420766f746500600082015250565b600061105c601f83610ca8565b915061106782611026565b602082019050919050565b6000602082019050818103600083015261108b8161104f565b9050919050565b7f596f75206861766520616c726561647920766f74656400000000000000000000600082015250565b60006110c8601683610ca8565b91506110d382611092565b602082019050919050565b600060208201905081810360008301526110f7816110bb565b9050919050565b7f496e76616c69642063616e646964617465204944000000000000000000000000600082015250565b6000611134601483610ca8565b915061113f826110fe565b602082019050919050565b6000602082019050818103600083015261116381611127565b9050919050565b7f4e487b7100000000000000000000000000000000000000000000000000000000600052601160045260246000fd5b60006111a482610ba8565b91507fffffffffffffffffffffffffffffffffffffffffffffffffffffffffffffffff82036111d6576111d561116a565b5b600182019050919050565b7f4e487b7100000000000000000000000000000000000000000000000000000000600052602260045260246000fd5b6000600282049050600182168061122857607f821691505b60208210810361123b5761123a6111e1565b5b50919050565b7f4f6e6c79206f776e65722063616e206164642063616e64696461746573000000600082015250565b6000611277601d83610ca8565b915061128282611241565b602082019050919050565b600060208201905081810360008301526112a68161126a565b9050919050565b7f456c656374696f6e2068617320616c7265616479207374617274656400000000600082015250565b60006112e3601c83610ca8565b91506112ee826112ad565b602082019050919050565b60006020820190508181036000830152611312816112d6565b9050919050565b60008190508160005260206000209050919050565b60006020601f8301049050919050565b600082821b905092915050565b60006008830261137b7fffffffffffffffffffffffffffffffffffffffffffffffffffffffffffffffff8261133e565b611385868361133e565b95508019841693508086168417925050509392505050565b6000819050919050565b60006113c26113bd6113b884610ba8565b61139d565b610ba8565b9050919050565b6000819050919050565b6113dc836113a7565b6113f06113e8826113c9565b84845461134b565b825550505050565b600090565b6114056113f8565b6114108184846113d3565b505050565b5b81811015611434576114296000826113fd565b600181019050611416565b5050565b601f8211156114795761144a81611319565b6114538461132e565b81016020851015611462578190505b61147661146e8561132e565b830182611415565b50505b505050565b600082821c905092915050565b600061149c6000198460080261147e565b1980831691505092915050565b60006114b5838361148b565b9150826002028217905092915050565b6114ce82610c9d565b67ffffffffffffffff8111156114e7576114e6610e1c565b5b6114f18254611210565b6114fc828285611438565b600060209050601f83116001811461152f576000841561151d578287015190505b61152785826114a9565b86555061158f565b601f19841661153d86611319565b60005b8281101561156557848901518255600182019150602085019450602081019050611540565b86831015611582578489015161157e601f89168261148b565b8355505b6001600288020188555050505b505050505050565b7f4f6e6c79206f776e65722063616e2061646420766f7465720000000000000000600082015250565b60006115cd601883610ca8565b91506115d882611597565b602082019050919050565b600060208201905081810360008301526115fc816115c0565b9050919050565b7f566f74657220616c726561647920616464656400000000000000000000000000600082015250565b6000611639601383610ca8565b915061164482611603565b602082019050919050565b600060208201905081810360008301526116688161162c565b9050919050565b7f566f7465722063616e277420626520616464656420616674657220656c65637460008201527f696f6e2073746172746564000000000000000000000000000000000000000000602082015250565b60006116cb602b83610ca8565b91506116d68261166f565b604082019050919050565b600060208201905081810360008301526116fa816116be565b905091905056fea264697066735822122067be0afd93b87fd58ac6e83a167337e7301d86429e521abc24030b34f7b0d7cf64736f6c63430008110033",
  "immutableReferences": {},
  "source": "// SPDX-License-Identifier: MIT\r\npragma solidity >=0.4.0 <0.9.0;\r\n\r\ncontract Election {\r\n    enum State {\r\n        NotStarted,\r\n        InProgress,\r\n        Ended\r\n    }\r\n\r\n    struct Candidate {\r\n        uint256 id;\r\n        string name;\r\n        uint256 voteCount;\r\n    }\r\n\r\n    address public owner;\r\n    State public electionState;\r\n\r\n    struct Voter {\r\n        uint256 id;\r\n        string name;\r\n    }\r\n\r\n    mapping(uint256 => Candidate) candidates;\r\n    mapping(address => bool) voted;\r\n\r\n    mapping(address => bool) isVoter;\r\n\r\n    uint256 public candidatesCount = 0;\r\n\r\n    uint256 public votersCount = 0;\r\n\r\n    constructor() {\r\n        owner = msg.sender;\r\n        electionState = State.NotStarted;\r\n    }\r\n\r\n    event Voted(uint256 indexed _candidateId);\r\n\r\n    function startElection() public {\r\n        require(msg.sender == owner);\r\n        require(electionState == State.NotStarted);\r\n        electionState = State.InProgress;\r\n    }\r\n\r\n    function endElection() public {\r\n        require(msg.sender == owner);\r\n        require(electionState == State.InProgress);\r\n        electionState = State.Ended;\r\n    }\r\n\r\n    function addCandidate(string memory _name) public {\r\n        require(owner == msg.sender, \"Only owner can add candidates\");\r\n        require( \r\n            electionState == State.NotStarted,\r\n            \"Election has already started\"\r\n        );\r\n\r\n        candidates[candidatesCount] = Candidate(candidatesCount, _name, 0);\r\n        candidatesCount++;\r\n    }\r\n\r\n    function addVoter(address _voter) public {\r\n        require(owner == msg.sender, \"Only owner can add voter\");\r\n        require(!isVoter[_voter], \"Voter already added\");\r\n        require(\r\n            electionState == State.NotStarted,\r\n            \"Voter can't be added after election started\"\r\n        );\r\n\r\n        isVoter[_voter] = true;\r\n    }\r\n\r\n    function getRole(address _current) public view returns (uint256) {\r\n        if (owner == _current) {\r\n            return 1;\r\n        } else if (isVoter[_current]) {\r\n            return 2;\r\n        } else {\r\n            return 3;\r\n        }\r\n    }\r\n\r\n    function vote(uint256 _candidateId) public {\r\n        require(\r\n            electionState == State.InProgress,\r\n            \"Election is not in progress\"\r\n        );\r\n        require(isVoter[msg.sender], \"Non authorised user cannot vote\");\r\n        require(!voted[msg.sender], \"You have already voted\");\r\n        require(\r\n            _candidateId >= 0 && _candidateId < candidatesCount,\r\n            \"Invalid candidate ID\"\r\n        );\r\n\r\n        candidates[_candidateId].voteCount++;\r\n        voted[msg.sender] = true;\r\n\r\n        emit Voted(_candidateId);\r\n    } \r\n\r\n    function getCandidateDetails(uint256 _candidateId)\r\n        public \r\n        view\r\n        returns (string memory, uint256)\r\n    {\r\n        require(\r\n            _candidateId >= 0 && _candidateId < candidatesCount,\r\n            \"Invalid candidate ID\"\r\n        );\r\n        return (\r\n            candidates[_candidateId].name,\r\n            candidates[_candidateId].voteCount\r\n        );\r\n    }\r\n}",
  "sourcePath": "F:\\MyProject\\contracts\\EthereumVoting.sol",
  "compiler": {
    "name": "solc",
    "version": "0.8.17+commit.8df45f5f.Emscripten.clang"
  },
  "schemaVersion": "3.4.10",
  "updatedAt": "2022-12-02T09:33:15.369Z",
  "networkType": "ethereum",
  "devdoc": {
    "kind": "dev",
    "methods": {},
    "version": 1
  },
  "userdoc": {
    "kind": "user",
    "methods": {},
    "version": 1
  }
}